S01900004B65797061645F4C636470726F6A6563742E7372656344
S11300000C942A000C943F000C943F000C943F0085
S11300100C943F000C943F000C943F000C943F0060
S11300200C943F000C943F000C943F000C943F0050
S11300300C943F000C943F000C943F000C943F0040
S11300400C943F000C943F000C943F000C943F0030
S11300500C943F0011241FBECFE5D8E0DEBFCDBF16
S113006010E0A0E6B0E0E8E2F3E002C005900D92F3
S1130070A43AB107D9F70E943F010C9492010C9461
S1130080000080EF84BB8FE085BB86E00E94D00037
S1130090089530E033C0432F50E080E190E0032E18
S11300A002C0880F991F0A94E2F7809585BB20E06F
S11300B022C083B3622F70E090E0022E02C09595B7
S11300C087950A94E2F780FD15C083B390E0062E6D
S11300D002C0959587950A94E2F780FFF6CF660FE4
S11300E0771F660F771F605A7F4FFB01E40FF51FE0
S11300F0808108952F5F2430E0F23F5F343058F25E
S1130100C8CFEF92FF921F93CF93DF937C01162FFA
S1130110D0E026C00E944900C82F833279F4DD2341
S1130120F9F0D150F701ED0FF11D108260E08D2F31
S11301300E94FD0080E20E94BB0012C080ED8C0F83
S11301408A3070F461E08D2F0E94FD00F701ED0FFD
S1130150F11DC0838C2F0E94BB00DF5F1D1721F0AF
S1130160D117C0F280E001C081E0DF91CF911F91EF
S1130170FF90EF9008958BBB88B3826088BB88B3EF
S1130180816088BB83E08A95F1F7000088B38E7F95
S113019088BB89EF90E00197F1F700C00000089553
S11301A08BBB88B38D7F88BB88B3816088BB83E0B9
S11301B08A95F1F7000088B38E7F88BB87E893E1C6
S11301C00197F1F700C0000008958FEF8ABB87B351
S11301D0836087BB8BE792E90197F1F700C00000C9
S11301E088E30E94D0008CE00E94D00086E00E9448
S11301F0D00081E00E94D0000895CF93DF9300D017
S1130200CDB7DEB7198290E49A83E1E0F0E0EC0F19
S1130210FD1FE60FF11D9081890F80680E94D000B8
S11302200F900F90DF91CF91089581E00E94D0004C
S113023087E893E10197F1F700C0000008950F9358
S11302401F93CF938C01C0E003C00E94BB00CF5F1B
S1130250F801EC0FF11D80818111F7CFCF911F912F
S11302600F91089561E080E00E94FD0080E790E036
S11302700E941F0161E080E00E94FD000895CF9379
S1130280DF9300D000D01F92CDB7DEB70E94E50007
S11302900E9441000E94150181E890E00E941F0124
S11302A064E0CE0101960E9481008823C1F1898116
S11302B08133F9F48A818233E1F48B818333C9F485
S11302C08C818433B1F40E94320161E080E00E94A9
S11302D0FD0081E990E00E941F012FE38DE093E08F
S11302E0215080409040E1F700C000000E9432019C
S11302F0D1CF0E94320161E080E00E94FD008AE9D2
S113030090E00E941F012FE38DE093E02150804094
S11303109040E1F700C000000E943201BBCF0E9470
S10B03203201B8CFF894FFCFBD
S11303283132334134353642373839432A3023445D
S113033820202020202020202020202020202020B1
S113034800456E7465722050617373636F64653A17
S113035800436F7272656374210054727920616777
S107036861696E0055
S9030000FC
